{
   "call_trace":[
      {
         "contract_name":"",
         "function":"",
         "from":"0x431b5a84acc1297eda88259f300262f1bc3a74f3",
         "from_balance":"23370786977838666725",
         "to":"0xa69babef1ca67a37ffaf7a485dfff3382056e78c",
         "input":"0x78e111f6000000000000000000000000cca5b90dd0120d4a8bc606bfabb78dc29c4383d7000000000000000000000000000000000000000000000000000000000000004000000000000000000000000000000000000000000000000000000000000000c42f1c6b5000000000000000000000000000000000000000000000009cb0361cfa2ac386f6000000000000000000000000000000000000000000004a3602eafbc948000000000000000000000000000000000000000000000004d109962fd84fe71472c78b00000000000000000000000000000000000000000000000000013e55b393f5f100000000000000000000000000000000000000000000000000000000661d1ccbff0000000000000000000000000000000000000000000000000000000000f5ff00000000000000000000000000000000000000000000000000000000",
         "output":"0x0000000000000000000000000000000000000000000000000000000000000020000000000000000000000000000000000000000000000000000000000000004000000000000000000000000000000000000000000000009cb0361cfa2ac386f600000000000000000000000000000000000000000000000000077fa009bc2617",
         "value":"10825742",
         "calls":[
            {
               "contract_name":"",
               "function":"",
               "from":"0xa69babef1ca67a37ffaf7a485dfff3382056e78c",
               "from_balance":"289788044471666956170",
               "to":"0xcca5b90dd0120d4a8bc606bfabb78dc29c4383d7",
               "input":"0x2f1c6b5000000000000000000000000000000000000000000000009cb0361cfa2ac386f6000000000000000000000000000000000000000000004a3602eafbc948000000000000000000000000000000000000000000000004d109962fd84fe71472c78b00000000000000000000000000000000000000000000000000013e55b393f5f100000000000000000000000000000000000000000000000000000000661d1ccbff0000000000000000000000000000000000000000000000000000000000f5ff",
               "output":"0x00000000000000000000000000000000000000000000009cb0361cfa2ac386f600000000000000000000000000000000000000000000000000077fa009bc2617",
               "value":null,
               "caller":"0x431b5a84acc1297eda88259f300262f1bc3a74f3",
               "caller_balance":"23370786977827840983",
               "calls":[
                  {
                     "contract_name":"",
                     "function":"swap",
                     "from":"0xa69babef1ca67a37ffaf7a485dfff3382056e78c",
                     "from_balance":"289788044471666956170",
                     "to":"0x08b8cebfca0f49a9303bab1cc4e2c25d280f2c00",
                     "input":"0x128acb08000000000000000000000000a69babef1ca67a37ffaf7a485dfff3382056e78c000000000000000000000000000000000000000000000000000000000000000100000000000000000000000000000000000000000000009cb0361cfa2ac386f6000000000000000000000000000000000000000004d109962fd84fe71472c78b00000000000000000000000000000000000000000000000000000000000000a0000000000000000000000000000000000000000000000000000000000000006080d03a3ee252565fe8ad6a4b243ecb5f76be9464e480f501b875f0bf0e6b1117000000000000000000000000a69babef1ca67a37ffaf7a485dfff3382056e78c00000000000000000000000057e114b691db790c35207b2e685d4a43181e6061",
                     "output":"0x00000000000000000000000000000000000000000000009cb0361cfa2ac386f6fffffffffffffffffffffffffffffffffffffffffffffffff1e9cd544bb96bd8",
                     "value":"0",
                     "caller":"0xa69babef1ca67a37ffaf7a485dfff3382056e78c",
                     "caller_balance":"289788044471666956170",
                     "decoded_input":[
                        {
                           "name":"recipient",
                           "type":"address",
                           "value":"0xa69babef1ca67a37ffaf7a485dfff3382056e78c"
                        },
                        {
                           "name":"zeroForOne",
                           "type":"bool",
                           "value":true
                        },
                        {
                           "name":"amountSpecified",
                           "type":"int256",
                           "value":"2890389443558892603126"
                        },
                        {
                           "name":"sqrtPriceLimitX96",
                           "type":"uint160",
                           "value":"1490650807342388024303601547"
                        },
                        {
                           "name":"data",
                           "type":"bytes",
                           "value":"0x80d03a3ee252565fe8ad6a4b243ecb5f76be9464e480f501b875f0bf0e6b1117000000000000000000000000a69babef1ca67a37ffaf7a485dfff3382056e78c00000000000000000000000057e114b691db790c35207b2e685d4a43181e6061"
                        }
                     ],
                     "decoded_output":[
                        {
                           "name":"amount0",
                           "type":"int256",
                           "value":"2890389443558892603126"
                        },
                        {
                           "name":"amount1",
                           "type":"int256",
                           "value":"-1015054479063946280"
                        }
                     ],
                     "calls":[
                        {
                           "contract_name":"UniswapV3Pool",
                           "function":"checkNotDelegateCall",
                           "from":"0x08b8cebfca0f49a9303bab1cc4e2c25d280f2c00",
                           "from_balance":null,
                           "to":"0x08b8cebfca0f49a9303bab1cc4e2c25d280f2c00",
                           "input":"0x",
                           "output":"0x",
                           "value":null,
                           "caller":"0xa69babef1ca67a37ffaf7a485dfff3382056e78c",
                           "caller_balance":"289788044471666956170"
                        },
                        {
                           "contract_name":"UniswapV3Pool",
                           "function":"_blockTimestamp",
                           "from":"0x08b8cebfca0f49a9303bab1cc4e2c25d280f2c00",
                           "from_balance":null,
                           "to":"0x08b8cebfca0f49a9303bab1cc4e2c25d280f2c00",
                           "input":"0x",
                           "output":"0x",
                           "value":null,
                           "caller":"0xa69babef1ca67a37ffaf7a485dfff3382056e78c",
                           "caller_balance":"289788044471666956170",
                           "decoded_output":[
                              {
                                 "name":"",
                                 "type":"uint32",
                                 "value":1713183947
                              }
                           ]
                        },
                        {
                           "contract_name":"UniswapV3Pool",
                           "function":"nextInitializedTickWithinOneWord",
                           "from":"0x08b8cebfca0f49a9303bab1cc4e2c25d280f2c00",
                           "from_balance":null,
                           "to":"0x08b8cebfca0f49a9303bab1cc4e2c25d280f2c00",
                           "input":"0x",
                           "output":"0x",
                           "value":null,
                           "caller":"0xa69babef1ca67a37ffaf7a485dfff3382056e78c",
                           "caller_balance":"289788044471666956170",
                           "decoded_input":[
                              {
                                 "name":"self",
                                 "type":"mapping (int16 => uint256)",
                                 "value":null
                              },
                              {
                                 "name":"tick",
                                 "type":"int24",
                                 "value":"-79431"
                              },
                              {
                                 "name":"tickSpacing",
                                 "type":"int24",
                                 "value":"200"
                              },
                              {
                                 "name":"lte",
                                 "type":"bool",
                                 "value":true
                              }
                           ],
                           "decoded_output":[
                              {
                                 "name":"next",
                                 "type":"int24",
                                 "value":"-79600"
                              },
                              {
                                 "name":"initialized",
                                 "type":"bool",
                                 "value":true
                              }
                           ],
                           "calls":[
                              {
                                 "contract_name":"UniswapV3Pool",
                                 "function":"position",
                                 "from":"0x08b8cebfca0f49a9303bab1cc4e2c25d280f2c00",
                                 "from_balance":null,
                                 "to":"0x08b8cebfca0f49a9303bab1cc4e2c25d280f2c00",
                                 "input":"0x",
                                 "output":"0x",
                                 "value":null,
                                 "caller":"0xa69babef1ca67a37ffaf7a485dfff3382056e78c",
                                 "caller_balance":"289788044471666956170",
                                 "decoded_input":[
                                    {
                                       "name":"tick",
                                       "type":"int24",
                                       "value":"-398"
                                    }
                                 ],
                                 "decoded_output":[
                                    {
                                       "name":"wordPos",
                                       "type":"int16",
                                       "value":-2
                                    },
                                    {
                                       "name":"bitPos",
                                       "type":"uint8",
                                       "value":114
                                    }
                                 ]
                              },
                              {
                                 "contract_name":"UniswapV3Pool",
                                 "function":"mostSignificantBit",
                                 "from":"0x08b8cebfca0f49a9303bab1cc4e2c25d280f2c00",
                                 "from_balance":null,
                                 "to":"0x08b8cebfca0f49a9303bab1cc4e2c25d280f2c00",
                                 "input":"0x",
                                 "output":"0x",
                                 "value":null,
                                 "caller":"0xa69babef1ca67a37ffaf7a485dfff3382056e78c",
                                 "caller_balance":"289788044471666956170",
                                 "decoded_input":[
                                    {
                                       "name":"x",
                                       "type":"uint256",
                                       "value":"31408610491904255635834249263710208"
                                    }
                                 ],
                                 "decoded_output":[
                                    {
                                       "name":"r",
                                       "type":"uint8",
                                       "value":114
                                    }
                                 ]
                              }
                           ]
                        },
                        {
                           "contract_name":"UniswapV3Pool",
                           "function":"getSqrtRatioAtTick",
                           "from":"0x08b8cebfca0f49a9303bab1cc4e2c25d280f2c00",
                           "from_balance":null,
                           "to":"0x08b8cebfca0f49a9303bab1cc4e2c25d280f2c00",
                           "input":"0x",
                           "output":"0x",
                           "value":null,
                           "caller":"0xa69babef1ca67a37ffaf7a485dfff3382056e78c",
                           "caller_balance":"289788044471666956170",
                           "decoded_input":[
                              {
                                 "name":"tick",
                                 "type":"int24",
                                 "value":"-79600"
                              }
                           ],
                           "decoded_output":[
                              {
                                 "name":"sqrtPriceX96",
                                 "type":"uint160",
                                 "value":"1480723485150363646066759695"
                              }
                           ]
                        },
                        {
                           "contract_name":"UniswapV3Pool",
                           "function":"computeSwapStep",
                           "from":"0x08b8cebfca0f49a9303bab1cc4e2c25d280f2c00",
                           "from_balance":null,
                           "to":"0x08b8cebfca0f49a9303bab1cc4e2c25d280f2c00",
                           "input":"0x",
                           "output":"0x",
                           "value":null,
                           "caller":"0xa69babef1ca67a37ffaf7a485dfff3382056e78c",
                           "caller_balance":"289788044471666956170",
                           "decoded_input":[
                              {
                                 "name":"sqrtRatioCurrentX96",
                                 "type":"uint160",
                                 "value":"1493293518680208607197324423"
                              },
                              {
                                 "name":"sqrtRatioTargetX96",
                                 "type":"uint160",
                                 "value":"1490650807342388024303601547"
                              },
                              {
                                 "name":"liquidity",
                                 "type":"uint128",
                                 "value":"36952865898751323422852"
                              },
                              {
                                 "name":"amountRemaining",
                                 "type":"int256",
                                 "value":"2890389443558892603126"
                              },
                              {
                                 "name":"feePips",
                                 "type":"uint24",
                                 "value":"10000"
                              }
                           ],
                           "decoded_output":[
                              {
                                 "name":"sqrtRatioNextX96",
                                 "type":"uint160",
                                 "value":"1491117208419227529373906214"
                              },
                              {
                                 "name":"amountIn",
                                 "type":"uint256",
                                 "value":"2861485549123303677094"
                              },
                              {
                                 "name":"amountOut",
                                 "type":"uint256",
                                 "value":"1015054479063946280"
                              },
                              {
                                 "name":"feeAmount",
                                 "type":"uint256",
                                 "value":"28903894435588926032"
                              }
                           ],
                           "calls":[
                              {
                                 "contract_name":"UniswapV3Pool",
                                 "function":"mulDiv",
                                 "from":"0x08b8cebfca0f49a9303bab1cc4e2c25d280f2c00",
                                 "from_balance":null,
                                 "to":"0x08b8cebfca0f49a9303bab1cc4e2c25d280f2c00",
                                 "input":"0x",
                                 "output":"0x",
                                 "value":null,
                                 "caller":"0xa69babef1ca67a37ffaf7a485dfff3382056e78c",
                                 "caller_balance":"289788044471666956170",
                                 "decoded_input":[
                                    {
                                       "name":"a",
                                       "type":"uint256",
                                       "value":"2890389443558892603126"
                                    },
                                    {
                                       "name":"b",
                                       "type":"uint256",
                                       "value":"990000"
                                    },
                                    {
                                       "name":"denominator",
                                       "type":"uint256",
                                       "value":"1000000"
                                    }
                                 ],
                                 "decoded_output":[
                                    {
                                       "name":"result",
                                       "type":"uint256",
                                       "value":"2861485549123303677094"
                                    }
                                 ]
                              },
                              {
                                 "contract_name":"UniswapV3Pool",
                                 "function":"getAmount0Delta",
                                 "from":"0x08b8cebfca0f49a9303bab1cc4e2c25d280f2c00",
                                 "from_balance":null,
                                 "to":"0x08b8cebfca0f49a9303bab1cc4e2c25d280f2c00",
                                 "input":"0x",
                                 "output":"0x",
                                 "value":null,
                                 "caller":"0xa69babef1ca67a37ffaf7a485dfff3382056e78c",
                                 "caller_balance":"289788044471666956170",
                                 "decoded_input":[
                                    {
                                       "name":"sqrtRatioAX96",
                                       "type":"uint160",
                                       "value":"1490650807342388024303601547"
                                    },
                                    {
                                       "name":"sqrtRatioBX96",
                                       "type":"uint160",
                                       "value":"1493293518680208607197324423"
                                    },
                                    {
                                       "name":"liquidity",
                                       "type":"uint128",
                                       "value":"36952865898751323422852"
                                    },
                                    {
                                       "name":"roundUp",
                                       "type":"bool",
                                       "value":true
                                    }
                                 ],
                                 "decoded_output":[
                                    {
                                       "name":"amount0",
                                       "type":"uint256",
                                       "value":"3475812477064242004322"
                                    }
                                 ],
                                 "calls":[
                                    {
                                       "contract_name":"UniswapV3Pool",
                                       "function":"mulDivRoundingUp",
                                       "from":"0x08b8cebfca0f49a9303bab1cc4e2c25d280f2c00",
                                       "from_balance":null,
                                       "to":"0x08b8cebfca0f49a9303bab1cc4e2c25d280f2c00",
                                       "input":"0x",
                                       "output":"0x",
                                       "value":null,
                                       "caller":"0xa69babef1ca67a37ffaf7a485dfff3382056e78c",
                                       "caller_balance":"289788044471666956170",
                                       "decoded_input":[
                                          {
                                             "name":"a",
                                             "type":"uint256",
                                             "value":"2927707664794086553464521227730877943231541015478272"
                                          },
                                          {
                                             "name":"b",
                                             "type":"uint256",
                                             "value":"2642711337820582893722876"
                                          },
                                          {
                                             "name":"denominator",
                                             "type":"uint256",
                                             "value":"1493293518680208607197324423"
                                          }
                                       ],
                                       "decoded_output":[
                                          {
                                             "name":"result",
                                             "type":"uint256",
                                             "value":"5181222675106557901457317631989153749907145703218"
                                          }
                                       ],
                                       "calls":[
                                          {
                                             "contract_name":"UniswapV3Pool",
                                             "function":"mulDiv",
                                             "from":"0x08b8cebfca0f49a9303bab1cc4e2c25d280f2c00",
                                             "from_balance":null,
                                             "to":"0x08b8cebfca0f49a9303bab1cc4e2c25d280f2c00",
                                             "input":"0x",
                                             "output":"0x",
                                             "value":null,
                                             "caller":"0xa69babef1ca67a37ffaf7a485dfff3382056e78c",
                                             "caller_balance":"289788044471666956170",
                                             "decoded_input":[
                                                {
                                                   "name":"a",
                                                   "type":"uint256",
                                                   "value":"2927707664794086553464521227730877943231541015478272"
                                                },
                                                {
                                                   "name":"b",
                                                   "type":"uint256",
                                                   "value":"2642711337820582893722876"
                                                },
                                                {
                                                   "name":"denominator",
                                                   "type":"uint256",
                                                   "value":"1493293518680208607197324423"
                                                }
                                             ],
                                             "decoded_output":[
                                                {
                                                   "name":"result",
                                                   "type":"uint256",
                                                   "value":"5181222675106557901457317631989153749907145703217"
                                                }
                                             ]
                                          }
                                       ]
                                    },
                                    {
                                       "contract_name":"UniswapV3Pool",
                                       "function":"divRoundingUp",
                                       "from":"0x08b8cebfca0f49a9303bab1cc4e2c25d280f2c00",
                                       "from_balance":null,
                                       "to":"0x08b8cebfca0f49a9303bab1cc4e2c25d280f2c00",
                                       "input":"0x",
                                       "output":"0x",
                                       "value":null,
                                       "caller":"0xa69babef1ca67a37ffaf7a485dfff3382056e78c",
                                       "caller_balance":"289788044471666956170",
                                       "decoded_input":[
                                          {
                                             "name":"x",
                                             "type":"uint256",
                                             "value":"5181222675106557901457317631989153749907145703218"
                                          },
                                          {
                                             "name":"y",
                                             "type":"uint256",
                                             "value":"1490650807342388024303601547"
                                          }
                                       ],
                                       "decoded_output":[
                                          {
                                             "name":"z",
                                             "type":"uint256",
                                             "value":"3475812477064242004322"
                                          }
                                       ]
                                    }
                                 ]
                              },
                              {
                                 "contract_name":"UniswapV3Pool",
                                 "function":"getNextSqrtPriceFromInput",
                                 "from":"0x08b8cebfca0f49a9303bab1cc4e2c25d280f2c00",
                                 "from_balance":null,
                                 "to":"0x08b8cebfca0f49a9303bab1cc4e2c25d280f2c00",
                                 "input":"0x",
                                 "output":"0x",
                                 "value":null,
                                 "caller":"0xa69babef1ca67a37ffaf7a485dfff3382056e78c",
                                 "caller_balance":"289788044471666956170",
                                 "decoded_input":[
                                    {
                                       "name":"sqrtPX96",
                                       "type":"uint160",
                                       "value":"1493293518680208607197324423"
                                    },
                                    {
                                       "name":"liquidity",
                                       "type":"uint128",
                                       "value":"36952865898751323422852"
                                    },
                                    {
                                       "name":"amountIn",
                                       "type":"uint256",
                                       "value":"2861485549123303677094"
                                    },
                                    {
                                       "name":"zeroForOne",
                                       "type":"bool",
                                       "value":true
                                    }
                                 ],
                                 "decoded_output":[
                                    {
                                       "name":"sqrtQX96",
                                       "type":"uint160",
                                       "value":"1491117208419227529373906214"
                                    }
                                 ],
                                 "calls":[
                                    {
                                       "contract_name":"UniswapV3Pool",
                                       "function":"getNextSqrtPriceFromAmount0RoundingUp",
                                       "from":"0x08b8cebfca0f49a9303bab1cc4e2c25d280f2c00",
                                       "from_balance":null,
                                       "to":"0x08b8cebfca0f49a9303bab1cc4e2c25d280f2c00",
                                       "input":"0x",
                                       "output":"0x",
                                       "value":null,
                                       "caller":"0xa69babef1ca67a37ffaf7a485dfff3382056e78c",
                                       "caller_balance":"289788044471666956170",
                                       "decoded_input":[
                                          {
                                             "name":"sqrtPX96",
                                             "type":"uint160",
                                             "value":"1493293518680208607197324423"
                                          },
                                          {
                                             "name":"liquidity",
                                             "type":"uint128",
                                             "value":"36952865898751323422852"
                                          },
                                          {
                                             "name":"amount",
                                             "type":"uint256",
                                             "value":"2861485549123303677094"
                                          },
                                          {
                                             "name":"add",
                                             "type":"bool",
                                             "value":true
                                          }
                                       ],
                                       "decoded_output":[
                                          {
                                             "name":"",
                                             "type":"uint160",
                                             "value":"1491117208419227529373906214"
                                          }
                                       ],
                                       "calls":[
                                          {
                                             "contract_name":"UniswapV3Pool",
                                             "function":"mulDivRoundingUp",
                                             "from":"0x08b8cebfca0f49a9303bab1cc4e2c25d280f2c00",
                                             "from_balance":null,
                                             "to":"0x08b8cebfca0f49a9303bab1cc4e2c25d280f2c00",
                                             "input":"0x",
                                             "output":"0x",
                                             "value":null,
                                             "caller":"0xa69babef1ca67a37ffaf7a485dfff3382056e78c",
                                             "caller_balance":"289788044471666956170",
                                             "decoded_input":[
                                                {
                                                   "name":"a",
                                                   "type":"uint256",
                                                   "value":"2927707664794086553464521227730877943231541015478272"
                                                },
                                                {
                                                   "name":"b",
                                                   "type":"uint256",
                                                   "value":"1493293518680208607197324423"
                                                },
                                                {
                                                   "name":"denominator",
                                                   "type":"uint256",
                                                   "value":"2931980702618389460528155696457907624833535367345034"
                                                }
                                             ],
                                             "decoded_output":[
                                                {
                                                   "name":"result",
                                                   "type":"uint256",
                                                   "value":"1491117208419227529373906214"
                                                }
                                             ],
                                             "calls":[
                                                {
                                                   "contract_name":"UniswapV3Pool",
                                                   "function":"mulDiv",
                                                   "from":"0x08b8cebfca0f49a9303bab1cc4e2c25d280f2c00",
                                                   "from_balance":null,
                                                   "to":"0x08b8cebfca0f49a9303bab1cc4e2c25d280f2c00",
                                                   "input":"0x",
                                                   "output":"0x",
                                                   "value":null,
                                                   "caller":"0xa69babef1ca67a37ffaf7a485dfff3382056e78c",
                                                   "caller_balance":"289788044471666956170",
                                                   "decoded_input":[
                                                      {
                                                         "name":"a",
                                                         "type":"uint256",
                                                         "value":"2927707664794086553464521227730877943231541015478272"
                                                      },
                                                      {
                                                         "name":"b",
                                                         "type":"uint256",
                                                         "value":"1493293518680208607197324423"
                                                      },
                                                      {
                                                         "name":"denominator",
                                                         "type":"uint256",
                                                         "value":"2931980702618389460528155696457907624833535367345034"
                                                      }
                                                   ],
                                                   "decoded_output":[
                                                      {
                                                         "name":"result",
                                                         "type":"uint256",
                                                         "value":"1491117208419227529373906213"
                                                      }
                                                   ]
                                                }
                                             ]
                                          }
                                       ]
                                    }
                                 ]
                              },
                              {
                                 "contract_name":"UniswapV3Pool",
                                 "function":"getAmount0Delta",
                                 "from":"0x08b8cebfca0f49a9303bab1cc4e2c25d280f2c00",
                                 "from_balance":null,
                                 "to":"0x08b8cebfca0f49a9303bab1cc4e2c25d280f2c00",
                                 "input":"0x",
                                 "output":"0x",
                                 "value":null,
                                 "caller":"0xa69babef1ca67a37ffaf7a485dfff3382056e78c",
                                 "caller_balance":"289788044471666956170",
                                 "decoded_input":[
                                    {
                                       "name":"sqrtRatioAX96",
                                       "type":"uint160",
                                       "value":"1491117208419227529373906214"
                                    },
                                    {
                                       "name":"sqrtRatioBX96",
                                       "type":"uint160",
                                       "value":"1493293518680208607197324423"
                                    },
                                    {
                                       "name":"liquidity",
                                       "type":"uint128",
                                       "value":"36952865898751323422852"
                                    },
                                    {
                                       "name":"roundUp",
                                       "type":"bool",
                                       "value":true
                                    }
                                 ],
                                 "decoded_output":[
                                    {
                                       "name":"amount0",
                                       "type":"uint256",
                                       "value":"2861485549123303677094"
                                    }
                                 ],
                                 "calls":[
                                    {
                                       "contract_name":"UniswapV3Pool",
                                       "function":"mulDivRoundingUp",
                                       "from":"0x08b8cebfca0f49a9303bab1cc4e2c25d280f2c00",
                                       "from_balance":null,
                                       "to":"0x08b8cebfca0f49a9303bab1cc4e2c25d280f2c00",
                                       "input":"0x",
                                       "output":"0x",
                                       "value":null,
                                       "caller":"0xa69babef1ca67a37ffaf7a485dfff3382056e78c",
                                       "caller_balance":"289788044471666956170",
                                       "decoded_input":[
                                          {
                                             "name":"a",
                                             "type":"uint256",
                                             "value":"2927707664794086553464521227730877943231541015478272"
                                          },
                                          {
                                             "name":"b",
                                             "type":"uint256",
                                             "value":"2176310260981077823418209"
                                          },
                                          {
                                             "name":"denominator",
                                             "type":"uint256",
                                             "value":"1493293518680208607197324423"
                                          }
                                       ],
                                       "decoded_output":[
                                          {
                                             "name":"result",
                                             "type":"uint256",
                                             "value":"4266810343940700943822636347277850327570396139169"
                                          }
                                       ],
                                       "calls":[
                                          {
                                             "contract_name":"UniswapV3Pool",
                                             "function":"mulDiv",
                                             "from":"0x08b8cebfca0f49a9303bab1cc4e2c25d280f2c00",
                                             "from_balance":null,
                                             "to":"0x08b8cebfca0f49a9303bab1cc4e2c25d280f2c00",
                                             "input":"0x",
                                             "output":"0x",
                                             "value":null,
                                             "caller":"0xa69babef1ca67a37ffaf7a485dfff3382056e78c",
                                             "caller_balance":"289788044471666956170",
                                             "decoded_input":[
                                                {
                                                   "name":"a",
                                                   "type":"uint256",
                                                   "value":"2927707664794086553464521227730877943231541015478272"
                                                },
                                                {
                                                   "name":"b",
                                                   "type":"uint256",
                                                   "value":"2176310260981077823418209"
                                                },
                                                {
                                                   "name":"denominator",
                                                   "type":"uint256",
                                                   "value":"1493293518680208607197324423"
                                                }
                                             ],
                                             "decoded_output":[
                                                {
                                                   "name":"result",
                                                   "type":"uint256",
                                                   "value":"4266810343940700943822636347277850327570396139168"
                                                }
                                             ]
                                          }
                                       ]
                                    },
                                    {
                                       "contract_name":"UniswapV3Pool",
                                       "function":"divRoundingUp",
                                       "from":"0x08b8cebfca0f49a9303bab1cc4e2c25d280f2c00",
                                       "from_balance":null,
                                       "to":"0x08b8cebfca0f49a9303bab1cc4e2c25d280f2c00",
                                       "input":"0x",
                                       "output":"0x",
                                       "value":null,
                                       "caller":"0xa69babef1ca67a37ffaf7a485dfff3382056e78c",
                                       "caller_balance":"289788044471666956170",
                                       "decoded_input":[
                                          {
                                             "name":"x",
                                             "type":"uint256",
                                             "value":"4266810343940700943822636347277850327570396139169"
                                          },
                                          {
                                             "name":"y",
                                             "type":"uint256",
                                             "value":"1491117208419227529373906214"
                                          }
                                       ],
                                       "decoded_output":[
                                          {
                                             "name":"z",
                                             "type":"uint256",
                                             "value":"2861485549123303677094"
                                          }
                                       ]
                                    }
                                 ]
                              },
                              {
                                 "contract_name":"UniswapV3Pool",
                                 "function":"getAmount1Delta",
                                 "from":"0x08b8cebfca0f49a9303bab1cc4e2c25d280f2c00",
                                 "from_balance":null,
                                 "to":"0x08b8cebfca0f49a9303bab1cc4e2c25d280f2c00",
                                 "input":"0x",
                                 "output":"0x",
                                 "value":null,
                                 "caller":"0xa69babef1ca67a37ffaf7a485dfff3382056e78c",
                                 "caller_balance":"289788044471666956170",
                                 "decoded_input":[
                                    {
                                       "name":"sqrtRatioAX96",
                                       "type":"uint160",
                                       "value":"1491117208419227529373906214"
                                    },
                                    {
                                       "name":"sqrtRatioBX96",
                                       "type":"uint160",
                                       "value":"1493293518680208607197324423"
                                    },
                                    {
                                       "name":"liquidity",
                                       "type":"uint128",
                                       "value":"36952865898751323422852"
                                    },
                                    {
                                       "name":"roundUp",
                                       "type":"bool",
                                       "value":false
                                    }
                                 ],
                                 "decoded_output":[
                                    {
                                       "name":"amount1",
                                       "type":"uint256",
                                       "value":"1015054479063946280"
                                    }
                                 ],
                                 "calls":[
                                    {
                                       "contract_name":"UniswapV3Pool",
                                       "function":"mulDiv",
                                       "from":"0x08b8cebfca0f49a9303bab1cc4e2c25d280f2c00",
                                       "from_balance":null,
                                       "to":"0x08b8cebfca0f49a9303bab1cc4e2c25d280f2c00",
                                       "input":"0x",
                                       "output":"0x",
                                       "value":null,
                                       "caller":"0xa69babef1ca67a37ffaf7a485dfff3382056e78c",
                                       "caller_balance":"289788044471666956170",
                                       "decoded_input":[
                                          {
                                             "name":"a",
                                             "type":"uint256",
                                             "value":"36952865898751323422852"
                                          },
                                          {
                                             "name":"b",
                                             "type":"uint256",
                                             "value":"2176310260981077823418209"
                                          },
                                          {
                                             "name":"denominator",
                                             "type":"uint256",
                                             "value":"79228162514264337593543950336"
                                          }
                                       ],
                                       "decoded_output":[
                                          {
                                             "name":"result",
                                             "type":"uint256",
                                             "value":"1015054479063946280"
                                          }
                                       ]
                                    }
                                 ]
                              }
                           ]
                        },
                        {
                           "contract_name":"UniswapV3Pool",
                           "function":"toInt256",
                           "from":"0x08b8cebfca0f49a9303bab1cc4e2c25d280f2c00",
                           "from_balance":null,
                           "to":"0x08b8cebfca0f49a9303bab1cc4e2c25d280f2c00",
                           "input":"0x",
                           "output":"0x",
                           "value":null,
                           "caller":"0xa69babef1ca67a37ffaf7a485dfff3382056e78c",
                           "caller_balance":"289788044471666956170",
                           "decoded_input":[
                              {
                                 "name":"y",
                                 "type":"uint256",
                                 "value":"2890389443558892603126"
                              }
                           ],
                           "decoded_output":[
                              {
                                 "name":"z",
                                 "type":"int256",
                                 "value":"2890389443558892603126"
                              }
                           ]
                        },
                        {
                           "contract_name":"UniswapV3Pool",
                           "function":"toInt256",
                           "from":"0x08b8cebfca0f49a9303bab1cc4e2c25d280f2c00",
                           "from_balance":null,
                           "to":"0x08b8cebfca0f49a9303bab1cc4e2c25d280f2c00",
                           "input":"0x",
                           "output":"0x",
                           "value":null,
                           "caller":"0xa69babef1ca67a37ffaf7a485dfff3382056e78c",
                           "caller_balance":"289788044471666956170",
                           "decoded_input":[
                              {
                                 "name":"y",
                                 "type":"uint256",
                                 "value":"1015054479063946280"
                              }
                           ],
                           "decoded_output":[
                              {
                                 "name":"z",
                                 "type":"int256",
                                 "value":"1015054479063946280"
                              }
                           ]
                        },
                        {
                           "contract_name":"UniswapV3Pool",
                           "function":"sub",
                           "from":"0x08b8cebfca0f49a9303bab1cc4e2c25d280f2c00",
                           "from_balance":null,
                           "to":"0x08b8cebfca0f49a9303bab1cc4e2c25d280f2c00",
                           "input":"0x",
                           "output":"0x",
                           "value":null,
                           "caller":"0xa69babef1ca67a37ffaf7a485dfff3382056e78c",
                           "caller_balance":"289788044471666956170",
                           "decoded_input":[
                              {
                                 "name":"x",
                                 "type":"int256",
                                 "value":"0"
                              },
                              {
                                 "name":"y",
                                 "type":"int256",
                                 "value":"1015054479063946280"
                              }
                           ],
                           "decoded_output":[
                              {
                                 "name":"z",
                                 "type":"int256",
                                 "value":"-1015054479063946280"
                              }
                           ]
                        },
                        {
                           "contract_name":"UniswapV3Pool",
                           "function":"mulDiv",
                           "from":"0x08b8cebfca0f49a9303bab1cc4e2c25d280f2c00",
                           "from_balance":null,
                           "to":"0x08b8cebfca0f49a9303bab1cc4e2c25d280f2c00",
                           "input":"0x",
                           "output":"0x",
                           "value":null,
                           "caller":"0xa69babef1ca67a37ffaf7a485dfff3382056e78c",
                           "caller_balance":"289788044471666956170",
                           "decoded_input":[
                              {
                                 "name":"a",
                                 "type":"uint256",
                                 "value":"28903894435588926032"
                              },
                              {
                                 "name":"b",
                                 "type":"uint256",
                                 "value":"340282366920938463463374607431768211456"
                              },
                              {
                                 "name":"denominator",
                                 "type":"uint256",
                                 "value":"36952865898751323422852"
                              }
                           ],
                           "decoded_output":[
                              {
                                 "name":"result",
                                 "type":"uint256",
                                 "value":"266162999068158715825791342151440800"
                              }
                           ]
                        },
                        {
                           "contract_name":"UniswapV3Pool",
                           "function":"getTickAtSqrtRatio",
                           "from":"0x08b8cebfca0f49a9303bab1cc4e2c25d280f2c00",
                           "from_balance":null,
                           "to":"0x08b8cebfca0f49a9303bab1cc4e2c25d280f2c00",
                           "input":"0x",
                           "output":"0x",
                           "value":null,
                           "caller":"0xa69babef1ca67a37ffaf7a485dfff3382056e78c",
                           "caller_balance":"289788044471666956170",
                           "decoded_input":[
                              {
                                 "name":"sqrtPriceX96",
                                 "type":"uint160",
                                 "value":"1491117208419227529373906214"
                              }
                           ],
                           "decoded_output":[
                              {
                                 "name":"tick",
                                 "type":"int24",
                                 "value":"-79461"
                              }
                           ],
                           "calls":[
                              {
                                 "contract_name":"UniswapV3Pool",
                                 "function":"getSqrtRatioAtTick",
                                 "from":"0x08b8cebfca0f49a9303bab1cc4e2c25d280f2c00",
                                 "from_balance":null,
                                 "to":"0x08b8cebfca0f49a9303bab1cc4e2c25d280f2c00",
                                 "input":"0x",
                                 "output":"0x",
                                 "value":null,
                                 "caller":"0xa69babef1ca67a37ffaf7a485dfff3382056e78c",
                                 "caller_balance":"289788044471666956170",
                                 "decoded_input":[
                                    {
                                       "name":"tick",
                                       "type":"int24",
                                       "value":"-79460"
                                    }
                                 ],
                                 "decoded_output":[
                                    {
                                       "name":"sqrtPriceX96",
                                       "type":"uint160",
                                       "value":"1491124390209332352488752353"
                                    }
                                 ]
                              }
                           ]
                        },
                        {
                           "contract_name":"UniswapV3Pool",
                           "function":"write",
                           "from":"0x08b8cebfca0f49a9303bab1cc4e2c25d280f2c00",
                           "from_balance":null,
                           "to":"0x08b8cebfca0f49a9303bab1cc4e2c25d280f2c00",
                           "input":"0x",
                           "output":"0x",
                           "value":null,
                           "caller":"0xa69babef1ca67a37ffaf7a485dfff3382056e78c",
                           "caller_balance":"289788044471666956170",
                           "decoded_input":[
                              {
                                 "name":"self",
                                 "type":"tuple[0]",
                                 "value":[
                                    
                                 ]
                              },
                              {
                                 "name":"index",
                                 "type":"uint16",
                                 "value":0
                              },
                              {
                                 "name":"blockTimestamp",
                                 "type":"uint32",
                                 "value":1713183947
                              },
                              {
                                 "name":"tick",
                                 "type":"int24",
                                 "value":"-79431"
                              },
                              {
                                 "name":"liquidity",
                                 "type":"uint128",
                                 "value":"36952865898751323422852"
                              },
                              {
                                 "name":"cardinality",
                                 "type":"uint16",
                                 "value":1
                              },
                              {
                                 "name":"cardinalityNext",
                                 "type":"uint16",
                                 "value":1
                              }
                           ],
                           "decoded_output":[
                              {
                                 "name":"indexUpdated",
                                 "type":"uint16",
                                 "value":0
                              },
                              {
                                 "name":"cardinalityUpdated",
                                 "type":"uint16",
                                 "value":1
                              }
                           ],
                           "calls":[
                              {
                                 "contract_name":"UniswapV3Pool",
                                 "function":"transform",
                                 "from":"0x08b8cebfca0f49a9303bab1cc4e2c25d280f2c00",
                                 "from_balance":null,
                                 "to":"0x08b8cebfca0f49a9303bab1cc4e2c25d280f2c00",
                                 "input":"0x",
                                 "output":"0x",
                                 "value":null,
                                 "caller":"0xa69babef1ca67a37ffaf7a485dfff3382056e78c",
                                 "caller_balance":"289788044471666956170",
                                 "decoded_input":[
                                    {
                                       "name":"last",
                                       "type":"tuple",
                                       "value":{
                                          "blockTimestamp":1713183887,
                                          "tickCumulative":"-91996292040",
                                          "secondsPerLiquidityCumulativeX128":"3487213696205777373595472006599881989240233",
                                          "initialized":true
                                       }
                                    },
                                    {
                                       "name":"blockTimestamp",
                                       "type":"uint32",
                                       "value":1713183947
                                    },
                                    {
                                       "name":"tick",
                                       "type":"int24",
                                       "value":"-79431"
                                    },
                                    {
                                       "name":"liquidity",
                                       "type":"uint128",
                                       "value":"36952865898751323422852"
                                    }
                                 ],
                                 "decoded_output":[
                                    {
                                       "name":"",
                                       "type":"tuple",
                                       "value":{
                                          "blockTimestamp":1713183947,
                                          "tickCumulative":"-92001057900",
                                          "secondsPerLiquidityCumulativeX128":"3487213696205777373595472559112969098573692",
                                          "initialized":true
                                       }
                                    }
                                 ]
                              }
                           ]
                        },
                        {
                           "contract_name":"UniswapV3Pool",
                           "function":"safeTransfer",
                           "from":"0x08b8cebfca0f49a9303bab1cc4e2c25d280f2c00",
                           "from_balance":null,
                           "to":"0x08b8cebfca0f49a9303bab1cc4e2c25d280f2c00",
                           "input":"0x",
                           "output":"0x",
                           "value":null,
                           "caller":"0xa69babef1ca67a37ffaf7a485dfff3382056e78c",
                           "caller_balance":"289788044471666956170",
                           "decoded_input":[
                              {
                                 "name":"token",
                                 "type":"address",
                                 "value":"0xc02aaa39b223fe8d0a0e5c4f27ead9083c756cc2"
                              },
                              {
                                 "name":"to",
                                 "type":"address",
                                 "value":"0xa69babef1ca67a37ffaf7a485dfff3382056e78c"
                              },
                              {
                                 "name":"value",
                                 "type":"uint256",
                                 "value":"1015054479063946280"
                              }
                           ],
                           "calls":[
                              {
                                 "contract_name":"UniswapV3Pool",
                                 "function":"transfer",
                                 "from":"0x08b8cebfca0f49a9303bab1cc4e2c25d280f2c00",
                                 "from_balance":"0",
                                 "to":"0xc02aaa39b223fe8d0a0e5c4f27ead9083c756cc2",
                                 "input":"0xa9059cbb000000000000000000000000a69babef1ca67a37ffaf7a485dfff3382056e78c0000000000000000000000000000000000000000000000000e1632abb4469428",
                                 "output":"0x0000000000000000000000000000000000000000000000000000000000000001",
                                 "value":"0",
                                 "caller":"0x08b8cebfca0f49a9303bab1cc4e2c25d280f2c00",
                                 "caller_balance":"0",
                                 "decoded_input":[
                                    {
                                       "name":"dst",
                                       "type":"address",
                                       "value":"0xa69babef1ca67a37ffaf7a485dfff3382056e78c"
                                    },
                                    {
                                       "name":"wad",
                                       "type":"uint256",
                                       "value":"1015054479063946280"
                                    }
                                 ],
                                 "decoded_output":[
                                    {
                                       "name":"",
                                       "type":"bool",
                                       "value":true
                                    }
                                 ],
                                 "calls":[
                                    {
                                       "contract_name":"WETH9",
                                       "function":"transferFrom",
                                       "from":"0xc02aaa39b223fe8d0a0e5c4f27ead9083c756cc2",
                                       "from_balance":null,
                                       "to":"0xc02aaa39b223fe8d0a0e5c4f27ead9083c756cc2",
                                       "input":"0x",
                                       "output":"0x",
                                       "value":null,
                                       "caller":"0x08b8cebfca0f49a9303bab1cc4e2c25d280f2c00",
                                       "caller_balance":"0",
                                       "decoded_input":[
                                          {
                                             "name":"src",
                                             "type":"address",
                                             "value":"0x08b8cebfca0f49a9303bab1cc4e2c25d280f2c00"
                                          },
                                          {
                                             "name":"dst",
                                             "type":"address",
                                             "value":"0xa69babef1ca67a37ffaf7a485dfff3382056e78c"
                                          },
                                          {
                                             "name":"wad",
                                             "type":"uint256",
                                             "value":"1015054479063946280"
                                          }
                                       ],
                                       "decoded_output":[
                                          {
                                             "name":"",
                                             "type":"bool",
                                             "value":true
                                          }
                                       ]
                                    }
                                 ]
                              }
                           ]
                        },
                        {
                           "contract_name":"UniswapV3Pool",
                           "function":"balance0",
                           "from":"0x08b8cebfca0f49a9303bab1cc4e2c25d280f2c00",
                           "from_balance":null,
                           "to":"0x08b8cebfca0f49a9303bab1cc4e2c25d280f2c00",
                           "input":"0x",
                           "output":"0x",
                           "value":null,
                           "caller":"0xa69babef1ca67a37ffaf7a485dfff3382056e78c",
                           "caller_balance":"289788044471666956170",
                           "decoded_output":[
                              {
                                 "name":"",
                                 "type":"uint256",
                                 "value":"106587344993919149883864"
                              }
                           ],
                           "calls":[
                              {
                                 "contract_name":"UniswapV3Pool",
                                 "function":"balanceOf",
                                 "from":"0x08b8cebfca0f49a9303bab1cc4e2c25d280f2c00",
                                 "from_balance":"0",
                                 "to":"0x57e114b691db790c35207b2e685d4a43181e6061",
                                 "input":"0x70a0823100000000000000000000000008b8cebfca0f49a9303bab1cc4e2c25d280f2c00",
                                 "output":"0x0000000000000000000000000000000000000000000016921c8e8c03412541d8",
                                 "value":null,
                                 "caller":"0x08b8cebfca0f49a9303bab1cc4e2c25d280f2c00",
                                 "caller_balance":"0",
                                 "decoded_input":[
                                    {
                                       "name":"account",
                                       "type":"address",
                                       "value":"0x08b8cebfca0f49a9303bab1cc4e2c25d280f2c00"
                                    }
                                 ],
                                 "decoded_output":[
                                    {
                                       "name":"",
                                       "type":"uint256",
                                       "value":"106587344993919149883864"
                                    }
                                 ]
                              }
                           ]
                        },
                        {
                           "contract_name":"UniswapV3Pool",
                           "function":"",
                           "from":"0x08b8cebfca0f49a9303bab1cc4e2c25d280f2c00",
                           "from_balance":"0",
                           "to":"0xa69babef1ca67a37ffaf7a485dfff3382056e78c",
                           "input":"0xfa461e3300000000000000000000000000000000000000000000009cb0361cfa2ac386f6fffffffffffffffffffffffffffffffffffffffffffffffff1e9cd544bb96bd80000000000000000000000000000000000000000000000000000000000000060000000000000000000000000000000000000000000000000000000000000006080d03a3ee252565fe8ad6a4b243ecb5f76be9464e480f501b875f0bf0e6b1117000000000000000000000000a69babef1ca67a37ffaf7a485dfff3382056e78c00000000000000000000000057e114b691db790c35207b2e685d4a43181e6061",
                           "output":"0x",
                           "value":"0",
                           "decoded_input":[
                              {
                                 "name":"amount0Delta",
                                 "type":"int256",
                                 "value":"2890389443558892603126"
                              },
                              {
                                 "name":"amount1Delta",
                                 "type":"int256",
                                 "value":"-1015054479063946280"
                              },
                              {
                                 "name":"data",
                                 "type":"bytes",
                                 "value":"0x80d03a3ee252565fe8ad6a4b243ecb5f76be9464e480f501b875f0bf0e6b1117000000000000000000000000a69babef1ca67a37ffaf7a485dfff3382056e78c00000000000000000000000057e114b691db790c35207b2e685d4a43181e6061"
                              }
                           ],
                           "calls":[
                              {
                                 "contract_name":"",
                                 "function":"transfer",
                                 "from":"0xa69babef1ca67a37ffaf7a485dfff3382056e78c",
                                 "from_balance":"289788044471666956170",
                                 "to":"0x57e114b691db790c35207b2e685d4a43181e6061",
                                 "input":"0xa9059cbb00000000000000000000000008b8cebfca0f49a9303bab1cc4e2c25d280f2c0000000000000000000000000000000000000000000000009cb0361cfa2ac386f6",
                                 "output":"0x0000000000000000000000000000000000000000000000000000000000000001",
                                 "value":"0",
                                 "caller":"0xa69babef1ca67a37ffaf7a485dfff3382056e78c",
                                 "caller_balance":"289788044471666956170",
                                 "decoded_input":[
                                    {
                                       "name":"to",
                                       "type":"address",
                                       "value":"0x08b8cebfca0f49a9303bab1cc4e2c25d280f2c00"
                                    },
                                    {
                                       "name":"amount",
                                       "type":"uint256",
                                       "value":"2890389443558892603126"
                                    }
                                 ],
                                 "decoded_output":[
                                    {
                                       "name":"",
                                       "type":"bool",
                                       "value":true
                                    }
                                 ],
                                 "calls":[
                                    {
                                       "contract_name":"ENA",
                                       "function":"_transfer",
                                       "from":"0x57e114b691db790c35207b2e685d4a43181e6061",
                                       "from_balance":null,
                                       "to":"0x57e114b691db790c35207b2e685d4a43181e6061",
                                       "input":"0x",
                                       "output":"0x",
                                       "value":null,
                                       "caller":"0xa69babef1ca67a37ffaf7a485dfff3382056e78c",
                                       "caller_balance":"289788044471666956170",
                                       "decoded_input":[
                                          {
                                             "name":"from",
                                             "type":"address",
                                             "value":"0xa69babef1ca67a37ffaf7a485dfff3382056e78c"
                                          },
                                          {
                                             "name":"to",
                                             "type":"address",
                                             "value":"0x08b8cebfca0f49a9303bab1cc4e2c25d280f2c00"
                                          },
                                          {
                                             "name":"amount",
                                             "type":"uint256",
                                             "value":"2890389443558892603126"
                                          }
                                       ]
                                    }
                                 ]
                              }
                           ]
                        },
                        {
                           "contract_name":"UniswapV3Pool",
                           "function":"balance0",
                           "from":"0x08b8cebfca0f49a9303bab1cc4e2c25d280f2c00",
                           "from_balance":null,
                           "to":"0x08b8cebfca0f49a9303bab1cc4e2c25d280f2c00",
                           "input":"0x",
                           "output":"0x",
                           "value":null,
                           "caller":"0xa69babef1ca67a37ffaf7a485dfff3382056e78c",
                           "caller_balance":"289788044471666956170",
                           "decoded_output":[
                              {
                                 "name":"",
                                 "type":"uint256",
                                 "value":"109477734437478042486990"
                              }
                           ],
                           "calls":[
                              {
                                 "contract_name":"UniswapV3Pool",
                                 "function":"balanceOf",
                                 "from":"0x08b8cebfca0f49a9303bab1cc4e2c25d280f2c00",
                                 "from_balance":"0",
                                 "to":"0x57e114b691db790c35207b2e685d4a43181e6061",
                                 "input":"0x70a0823100000000000000000000000008b8cebfca0f49a9303bab1cc4e2c25d280f2c00",
                                 "output":"0x00000000000000000000000000000000000000000000172eccc4a8fd6be8c8ce",
                                 "value":null,
                                 "caller":"0x08b8cebfca0f49a9303bab1cc4e2c25d280f2c00",
                                 "caller_balance":"0",
                                 "decoded_input":[
                                    {
                                       "name":"account",
                                       "type":"address",
                                       "value":"0x08b8cebfca0f49a9303bab1cc4e2c25d280f2c00"
                                    }
                                 ],
                                 "decoded_output":[
                                    {
                                       "name":"",
                                       "type":"uint256",
                                       "value":"109477734437478042486990"
                                    }
                                 ]
                              }
                           ]
                        },
                        {
                           "contract_name":"UniswapV3Pool",
                           "function":"add",
                           "from":"0x08b8cebfca0f49a9303bab1cc4e2c25d280f2c00",
                           "from_balance":null,
                           "to":"0x08b8cebfca0f49a9303bab1cc4e2c25d280f2c00",
                           "input":"0x",
                           "output":"0x",
                           "value":null,
                           "caller":"0xa69babef1ca67a37ffaf7a485dfff3382056e78c",
                           "caller_balance":"289788044471666956170",
                           "decoded_input":[
                              {
                                 "name":"x",
                                 "type":"uint256",
                                 "value":"106587344993919149883864"
                              },
                              {
                                 "name":"y",
                                 "type":"uint256",
                                 "value":"2890389443558892603126"
                              }
                           ],
                           "decoded_output":[
                              {
                                 "name":"z",
                                 "type":"uint256",
                                 "value":"109477734437478042486990"
                              }
                           ]
                        }
                     ]
                  }
               ]
            }
         ]
      }
   ],
   "asset_changes":[
      {
         "type":"Transfer",
         "from":"0x08b8cebfca0f49a9303bab1cc4e2c25d280f2c00",
         "to":"0xa69babef1ca67a37ffaf7a485dfff3382056e78c",
         "amount":"1.01505447906394628",
         "dollar_value":"3204.3341895297046387",
         "token_info":{
            "standard":"ERC20",
            "type":"Fungible",
            "symbol":"weth",
            "name":"WETH",
            "decimals":18,
            "contract_address":"0xc02aaa39b223fe8d0a0e5c4f27ead9083c756cc2"
         }
      },
      {
         "type":"Transfer",
         "from":"0xa69babef1ca67a37ffaf7a485dfff3382056e78c",
         "to":"0x08b8cebfca0f49a9303bab1cc4e2c25d280f2c00",
         "amount":"2890.389443558892603126",
         "dollar_value":"3497.3713369658671191375",
         "token_info":{
            "standard":"ERC20",
            "type":"Fungible",
            "symbol":"ena",
            "name":"Ethena",
            "decimals":18,
            "contract_address":"0x57e114b691db790c35207b2e685d4a43181e6061"
         }
      },
      {
         "type":"Transfer",
         "from":"0x431b5a84acc1297eda88259f300262f1bc3a74f3",
         "to":"0xa69babef1ca67a37ffaf7a485dfff3382056e78c",
         "amount":"0.000000000010825742",
         "dollar_value":"0.000000034161820875541503906",
         "token_info":{
            "standard":"NativeCurrency",
            "type":"Native",
            "symbol":"eth",
            "name":"Ethereum",
            "decimals":18,
            "contract_address":""
         }
      }
   ],
   "hash":"0x600f9f1a58792762e1dacb261d9d210c9929aee8a9ed5afe36d888b2138733ef"
}