{
   "call_trace":[
      {
         "contract_name":"ERC1967Proxy",
         "function":"withdraw",
         "from":"0x11a97a553ad4e1985be2c5a82605fd7cbb79475a",
         "from_balance":"7441493837170784",
         "to":"0x0000000000a39bb272e79075ade125fd351887ac",
         "input":"0x2e1a7d4d0000000000000000000000000000000000000000000000000000fdbfbfe47000",
         "output":"0x",
         "value":"0",
         "caller":"0x11a97a553ad4e1985be2c5a82605fd7cbb79475a",
         "caller_balance":"7441493837170784",
         "decoded_input":[
            {
               "name":"amount",
               "type":"uint256",
               "value":"279000000000000"
            }
         ],
         "calls":[
            {
               "contract_name":"ERC1967Proxy",
               "function":"_implementation",
               "from":"0x0000000000a39bb272e79075ade125fd351887ac",
               "from_balance":null,
               "to":"0x0000000000a39bb272e79075ade125fd351887ac",
               "input":"0x",
               "output":"0x",
               "value":null,
               "caller":"0x11a97a553ad4e1985be2c5a82605fd7cbb79475a",
               "caller_balance":"7441493837170784",
               "decoded_output":[
                  {
                     "name":"impl",
                     "type":"address",
                     "value":"0x01a656024de4b89e2d0198bf4d468e8fd2358b17"
                  }
               ]
            },
            {
               "contract_name":"ERC1967Proxy",
               "function":"withdraw",
               "from":"0x0000000000a39bb272e79075ade125fd351887ac",
               "from_balance":"24878491589834688645879",
               "to":"0x01a656024de4b89e2d0198bf4d468e8fd2358b17",
               "input":"0x2e1a7d4d0000000000000000000000000000000000000000000000000000fdbfbfe47000",
               "output":"0x",
               "value":null,
               "caller":"0x11a97a553ad4e1985be2c5a82605fd7cbb79475a",
               "caller_balance":"7441493837170784",
               "decoded_input":[
                  {
                     "name":"amount",
                     "type":"uint256",
                     "value":"279000000000000"
                  }
               ],
               "calls":[
                  {
                     "contract_name":"BlurPool",
                     "function":"",
                     "from":"0x0000000000a39bb272e79075ade125fd351887ac",
                     "from_balance":"24878491589834688645879",
                     "to":"0x11a97a553ad4e1985be2c5a82605fd7cbb79475a",
                     "input":"0x",
                     "output":"0x",
                     "value":"279000000000000"
                  }
               ]
            }
         ]
      }
   ],
   "asset_changes":[
      {
         "type":"Burn",
         "from":"0x11a97a553ad4e1985be2c5a82605fd7cbb79475a",
         "to":"",
         "amount":null,
         "dollar_value":null,
         "token_info":{
            "standard":"ERC20",
            "type":"",
            "symbol":"",
            "name":"",
            "decimals":"",
            "contract_address":"0x0000000000a39bb272e79075ade125fd351887ac"
         }
      },
      {
         "type":"Transfer",
         "from":"0x0000000000a39bb272e79075ade125fd351887ac",
         "to":"0x11a97a553ad4e1985be2c5a82605fd7cbb79475a",
         "amount":"0.000279",
         "dollar_value":"0.865438450927734375",
         "token_info":{
            "standard":"NativeCurrency",
            "type":"Native",
            "symbol":"eth",
            "name":"Ethereum",
            "decimals":18,
            "contract_address":""
         }
      }
   ],
   "hash":"0x9693e29124cd5bf5ea886ec6365474899dbc5c119bd003d2c648243cdda0362c",
   "status":true
}